:020000040800F2
:10000000200C00243903000877320008012F000873
:100010007532000893050008434300080000000003
:10002000000000000000000000000000BD340008D7
:10003000950500080000000079320008BF34000870
:100040005303000853030008530300085303000838
:100050005303000853030008530300085303000828
:100060005303000853030008530300085303000818
:100070005303000853030008530300085303000808
:1000800053030008530300085303000853030008F8
:1000900053030008530300085303000853030008E8
:1000A00053030008530300085303000853030008D8
:1000B0004D3600085303000853030008530300089B
:1000C00053030008530300085303000853030008B8
:1000D00053030008530300085303000853030008A8
:1000E00053030008530300080000000053030008F6
:1000F0005303000853030008530300085303000888
:100100005303000853030008530300085303000877
:100110005303000853030008530300085303000867
:100120005303000853030008530300085303000857
:100130005303000853030008530300085303000847
:1001400000000000000000000000000000000000AF
:100150005303000853030008530300085303000827
:100160005303000853030008530300085303000817
:100170005303000853030008530300080000000065
:1001800053030008530300085303000853030008F7
:1001900053030008530300085303000853030008E7
:1001A00053030008530300085303000853030008D7
:1001B00053030008530300085303000853030008C7
:1001C00053030008530300085303000853030008B7
:1001D00053030008530300085303000853030008A7
:1001E0005303000853030008530300085303000897
:1001F0005303000853030008530300085303000887
:100200005303000853030008530300085303000876
:100210005303000853030008530300085303000866
:1002200053030008530300085303000800000000B4
:1002300053030008530300080000000053030008A4
:100240005303000853030008530300085303000836
:100250005303000853030008530300085303000826
:100260005303000853030008530300085303000816
:100270005303000853030008530300080000000064
:100280005303000853030008530300080000000054
:10029000000000005303000800F002F800F03CF8F2
:1002A0000AA090E8000C82448344AAF10107DA45D1
:1002B00001D100F031F8AFF2090EBAE80F0013F0E7
:1002C000010F18BFFB1A43F0010318472441000037
:1002D00044410000103A24BF78C878C1FAD85207C8
:1002E00024BF30C830C144BF04680C6070470000B0
:1002F0000023002400250026103A28BF78C1FBD82F
:10030000520728BF30C148BF0B6070471FB504F0CB
:100310004DF81FBD10B510BD00F001F91146FFF7F3
:10032000F5FF04F021F800F01FF903B4FFF7F2FF26
:1003300003BC00F027F9000009488047094800473E
:10034000FEE7FEE7FEE7FEE7FEE7FEE7FEE7FEE785
:10035000FEE7FEE704480549054A064B70470000E2
:10036000693500089902000820060024200C0024AA
:10037000200800242008002453EA020C00F06980C1
:100380002DE9F04B4FF00006002B1FBFB3FA83F5A9
:1003900003FA05F424FA05F65E4012BF1643B2FADA
:1003A00082F502FA05F4C5F120051EBF22FA05FC0C
:1003B00044EA0C04203556EA044C4FEA144418BFB2
:1003C000641C4FF000084FF00009904271EB030CE1
:1003D00039D3002919BFB1FA81F701FA07F6B0FA4B
:1003E00080F700FA07F6C7F120071EBF20FA07FCC6
:1003F00046EA0C062037B6FBF4FCA7EB0507103FD6
:1004000007F01F0BCBF120060CFA0BFB2CFA06F6BB
:1004100044BFB3460026202FA4BF5E464FF0000B1A
:100420005BEA060C08BF4FF0010B19EB0B09ABFBA5
:10043000027C48EB0608C01B06FB02CC0BFB03CC7E
:1004400071EB0C01C1E70B46024641464846BDE848
:10045000F08B13B54FF000004FF00001AFF30080B8
:10046000BDE81C40704710B5203AC0F00B80B1E8E1
:100470001850203AA0E81850B1E81850A0E81850D9
:10048000BFF4F5AF5FEA027C24BFB1E81850A0E8E2
:10049000185044BF18C918C0BDE810405FEA827CFC
:1004A00024BF51F8043B40F8043B08BF7047D20713
:1004B00028BF31F8023B48BF11F8012B28BF20F8B4
:1004C000023B48BF00F8012B70474FF0000200B517
:1004D000134694469646203922BFA0E80C50A0E867
:1004E0000C50B1F12001BFF4F7AF090728BFA0E815
:1004F0000C5048BF0CC05DF804EB890028BF40F8E1
:10050000042B08BF704748BF20F8022B11F0804F22
:1005100018BF00F8012B7047704770477047754649
:1005200000F02CF8AE4605006946534620F007005F
:10053000854618B020B5FFF70DFFBDE820404FF00D
:1005400000064FF000074FF000084FF0000B21F0BD
:100550000701AC46ACE8C009ACE8C009ACE8C0098A
:10056000ACE8C0098D46704710B50446AFF3008073
:100570002046BDE81040FFF7D8BE00000048704795
:10058000BC05002401491820ABBEFEE7260002008E
:100590007047FEE7704770B5A2B0064600244FF4DE
:1005A000C36001258DF80F5002238DF81D406903AB
:1005B0008DF80E5009948DF81F400D9020208DF875
:1005C00004508DF8325042028DF8605006914FF081
:1005D00040518DF8384002948DF861408DF81C40F0
:1005E0008DF828408DF862408DF80C400B948DF802
:1005F0001E500F948DF8115012948DF840408DF8D4
:1006000031408DF8124014948DF8564017903046C2
:1006100016938DF8205005928DF854408DF8304097
:100620008DF81050009169468DF80D408DF85540B9
:1006300011948DF84C5000F075F81B9568058DF8F5
:1006400071404FF406718DF8685019948DF8804010
:100650008DF870401F908DF878401D9030468DF8D1
:100660008140219119A900F003F822B070BD00006B
:10067000F0B5026847F6020E274E4DF2010702F56B
:100680008052264DD1F800C01368254C23EA0E0392
:1006900043EA0C0313600B79026891F80CE002F551
:1006A0008052D1F808C01B0343EACE3343EA0C035F
:1006B000D2F804C02CEA070C4CEA030CC2F804C0C0
:1006C00002684F7B02F580520B6A43EA0747D2F873
:1006D000003133403B43C2F8003102680B7D02F524
:1006E000805291F81DC00F69D2F804611B0143EAE2
:1006F0000C332E403B431E43C2F8046100680B7F5D
:1007000000F580508A69D0F8081142EAC37221408E
:100710001143C0F80811F0BD00C0FEFFEFEFC0FFAD
:10072000FFFFC07FF0B50B790C7B0F688A68DB0692
:100730004D7B43EAC4533A438E7B1A43CF7B91F8F7
:1007400010C042EA855242EA4652BCF1000F42EA2A
:1007500007537CD000224C7C002C43EAC24278D064
:1007600000238E7C0D7F42EA43428F7FD1E905341E
:1007700042EA06424E7F1A43224342EA0532002FE4
:1007800042EAC62466D00022CD7F91F8203044EAA8
:100790008222002B42EA45227ED0002504684B6A63
:1007A00042EA052291F82870464D1A43CE6A236822
:1007B00042EA071232432B401343236091F83C2056
:1007C00091F8383091F8305091F83140520642EAB1
:1007D000036291F8326042EA854242EA4444BEB381
:1007E00000220368384E4F6B44EA02425C683A4389
:1007F00040F20F15344014435C60036891F8406088
:100800004C6CDA6844EA0624AA432243DA6091F881
:1008100054300A6D91F84C4042EA4302ECB3002494
:100820000368B1F848504FF60D76E7011C6F47EAB0
:1008300005452A43344014431C67026891F856303A
:1008400091F8555052F8904F43EA450303E02BE0EE
:1008500032E02BE02CE024F003041C431460026817
:100860008C6DD2F8003D23F072032343C2F8003DA3
:1008700091F86020CC6D1AB35FF00003026891F824
:10088000615091F8621044EA8310D2F8303D2C0197
:1008900044EAC101084301E00CE00FE023F07B01D2
:1008A0000143C2F8301DF0BD012254E7012358E78F
:1008B000012269E7012571E7012292E70124AFE7F0
:1008C0000123DBE7838004000080F8C072B6FEE7F6
:1008D00070B5044600F0B8FA0546601C02D0044822
:1008E0000078044400F0B0FA401BA042FAD370BD77
:1008F00008000024F8B5040002D0E06E10B104E056
:100900000120F8BD204600F0FBF82320E066724885
:10091000016841F002010160006800F002000090EF
:10092000207A08B14FF4000001F09CFE206800F529
:100930008050016841F00101016000F085FAE02675
:1009400005464FF4FA7706E000F07EFA401BB84205
:1009500001D9042049E0206800F580500068C007F4
:10096000F2D12068D0F8000220F4706501F014FB89
:100970005A495B4A0144914202D245F4007516E09F
:10098000584A594902448A4202D245F440750EE061
:100990005649574A0144914209D35649564A084498
:1009A000904202D245F4807501E045F480652068EC
:1009B000C0F8005201F0F0FA504A2168B0FBF2F0A2
:1009C000401EC1F8DC002046FFF7E5FD206800F579
:1009D0008050D0F8001121F4E01141F40021C0F85A
:1009E00000116169880703D001206067E66687E728
:1009F000206847F6FE7300F58050D0F808219A432E
:100A000042EA4101C0F8081100210A46E06802EB01
:100A1000420504EB820300EBC50001604160816088
:100A2000C160521C042A9861F0D3A162032320689C
:100A300000F58050C0F82C312068E26800F5805045
:100A4000C0F814212068E26800F58050C0F8202129
:100A50005FF00002206902EB420604EB820500EB26
:100A6000C600016041608160C160521C0161042ABE
:100A700041616864EED36165A165E16561662166E7
:100A8000206800F58050C0F830312068226900F5F8
:100A90008050C0F81C212268206902F5805248303D
:100AA000C2F828011022D4E900308088C3F800037E
:100AB000D4E900308578C77890F801C006782D0415
:100AC00046EA076045EA0C252843C3F8040361673A
:100AD000E26622670020F8BDF444025800D3CEFE3F
:100AE000C0E1E40040F1E9FD40787D0100796CFC53
:100AF000005A6202001F0AFA80F0FA0240420F0018
:100B000070B586B0044614216846FFF7DEFC36490E
:100B10002068884266D13548016841F4004101608F
:100B2000016801F400410591016841F480310160E0
:100B3000016801F480310591016841F400310160E0
:100B4000006800F40030059028480830016841F042
:100B500004010160016801F004010591016841F0A0
:100B600001010160016801F001010591016841F096
:100B700002010160016801F002010591016841F084
:100B800040010160006800240B26694600F0400027
:100B900005903220009002251548CDE90154CDE999
:100BA000034600F02DF886200090CDE9015411484D
:100BB0006946CDE9034600F023F828030090CDE90B
:100BC00001540D486946CDE9034600F019F84FF489
:100BD00020500090CDE9015408486946CDE903460C
:100BE00000F00EF806B070BD00800240D8440258F4
:100BF0000008025800000258000402580018025869
:100C00002DE9FC4F01257E4C00234FF0030A4FF0E5
:100C1000B04E4FF00F0BEBE005FA03F637403A0009
:100C200077D04F68012F05D0022F03D0112F01D0AC
:100C3000122F1AD187684FEA4308D1F80CC00AFA7C
:100C400008F927EA09070CFA08FC4CEA070CC0F877
:100C500008C0476891F804C0B743CCF3001C0CFAF5
:100C600003FC4CEA070CC0F804C0C6684FEA430C0A
:100C7000D1F80880E1460AFA0CF7BE43019708FA5A
:100C800009F848EA0608C0F80C804E68022E01D028
:100C9000122E12D1DE084FEA437C00EB8606009646
:100CA0000F69366A4FEADC6C0BFA0CF807FA0CF79E
:100CB00026EA08063743009E37620E790768DDF89A
:100CC00004C006F0030606FA09F627EA0C073E43BD
:100CD00006604E68F6001CD54A4E376847F002079A
:100CE000376036689F0706F00206009623F0030679
:100CF00006F1B046B1463F0FD6F80864DFF8088128
:100D00000BFA07FC404526EA0C0603D14FF0000C15
:100D100041E06CE0DFF8F4C0604502D14FF0010C17
:100D200039E0DFF8ECC0604502D14FF0020C32E050
:100D3000DFF8E0C0604502D14FF0030C2BE0DFF894
:100D4000D8C0604502D14FF0040C24E0DFF8CCC0DD
:100D5000604502D14FF0050C1DE0DFF8C4C06045CE
:100D600002D14FF0060C16E0DFF8B8C0604502D1A2
:100D70004FF0070C0FE0DFF8B0C0604502D14FF034
:100D8000080C08E0DFF8A4C0604502D14FF0090C60
:100D900001E04FF00A0C0CFA07FC4CEA060CC9F80B
:100DA00008C426684F6826EA0206FF0300D51643EA
:100DB000266066684F6826EA0206BF0300D5164320
:100DC0006660D1F804C07646DEF800705FEACC2C8D
:100DD00027EA020700D517433760D1F804C07768C7
:100DE0005FEA8C2C27EA020700D5174377605B1C6B
:100DF0000A681746DA407FF40FAFBDE8FC8F0000A9
:100E000080000058F44402580000025800040258C0
:100E100000080258000C0258001002580014025832
:100E200000180258001C02580020025800240258E2
:100E30000AB1816170470904FBE7000001480068BE
:100E4000000C70470010005C01488068704700008B
:100E500008000024024881680278114481607047CC
:100E600008000024032010B500F086F801F0DAF83D
:100E70000F4A104914681368C4F3032203F00F03E8
:100E80008A5CC95C02F01F0201F01F01D0400A4ACF
:100E900020FA01F1116009490860002000F010F803
:100EA00008B1012010BD00F02BF8002010BD00009B
:100EB00018440258DE4300081800002414000024DF
:100EC00070B50D4D04462878A0B14FF47A71B1FB8E
:100ED000F0F00A490968B1FBF0F001F0CDFB48B928
:100EE000102C07D200222146501E00F025F80020C9
:100EF0006C6070BD012070BD080000241400002447
:100F0000054808B5016841F002010160006800F081
:100F10000200009008BD0000F4440258002809DBDC
:100F2000410900F01F028900012001F1E0219040F9
:100F3000C1F80001704700000E4BF0B41B680D466D
:100F4000C3F30223C3F10706042E00D90426191D9A
:100F5000072901D2002300E0DB1E012404FA06F178
:100F60009C40491E2940641E994014402143F0BC16
:100F700003F0E8B90CED00E0064900F0070210B5F7
:100F80004FF6FF040868044B204040EA0220184353
:100F9000086010BD0CED00E00000FA0501680123B7
:100FA000C0F8FC33002280F8F4238869044A40F03A
:100FB00000608861486D104348650020704700005C
:100FC000030000102DE9F04104008AB005D094F828
:100FD000BD030025266820B108E001200AB0BDE865
:100FE000F081204684F8BC5300F066F8032084F8B2
:100FF000BD03F06BC00500D42561206803F062F9E1
:1010000004F11001684628228846FFF72CFA94E87C
:101010000F0003F02DF80227D8BB2068002103F051
:1010200079F90020012610E0C0EBC001421C04EB5E
:10103000810181F83D6081F83F504D648D640D65FC
:1010400081F83C00A1F84200D0B261688142EBD83F
:10105000002011E0C0EBC001421C04EB810181F8CB
:10106000FD5181F8FF51C1F80452C1F80852C1F88E
:10107000105281F8FC01D0B261688142EAD828227E
:1010800041466846FFF7EFF994E80F0003F05EF879
:1010900010B184F8BD73A0E7606A84F8385084F812
:1010A000BD63012802D12046FFF778FF206803F0D6
:1010B0003FF8002092E7000030B5B5B00446142197
:1010C0002FA8FFF702FABC216846FFF7FEF91F4977
:1010D0002068884237D14FF4802000908100684614
:1010E000219100F0C1F908B1FFF7F0FB00F05EF8C4
:1010F0001748016841F00101016000682FAB00242E
:10110000144D00F00100349002214FF4C8500A221F
:1011100083E81300CDE932422FA92846FFF770FD7E
:101120004FF40070CDE92F042FA928463194FFF722
:1011300067FD07480838016841F0006101600068F8
:1011400000F00060349035B030BD00000000084071
:10115000E044025800000258134970B50A68D243AF
:10116000520705D5096801F00701814213D118E043
:101170000A6822F0070202430A60FFF765FE0A4D83
:101180004FF47A760446083D07E000BFFFF75CFEA7
:10119000001BB04201D9012070BD2868C043800403
:1011A000F4D4002070BD00000C48025802480168C9
:1011B00041F08071016070470C48025810B500F092
:1011C000EBFE05490968054AC1F30211515C01F0C3
:1011D0001F01C84010BD000020440258DE43000833
:1011E000494930B5484C0B1D0A68143409681D681C
:1011F000246802F00303C5F30012C1F30531C4F300
:10120000CC04002914FB02F200EE102AF8EE400A8A
:1012100075D03F4A9FED3D1AB7EE000A6BB1DFED86
:101220003D1A012B01D0022B64D002EE101A116876
:10123000F8EE422A81EEA22A21E0334C283C2368B2
:101240009B0612D5344B246801EE901A1168C4F342
:10125000C104F8EE612AE34001EE903AC1F30801BF
:10126000F8EE611A81EEA22A0BE001EE901ADFED92
:101270002B2A00BFF8EE611A116882EEA12AC1F391
:10128000080101EE901A1168F8EE611A40EE811A19
:1012900071EE800A62EE200AC1F3462101EE101AB7
:1012A000B8EE411A31EE001AC0EE811ABCEEE11A16
:1012B00080ED001A1168C1F3064101EE101AB8EE74
:1012C000411A31EE001AC0EE811ABCEEE11A80ED2F
:1012D000011A1168C1F3066101EE101AB8EE411A45
:1012E00031EE000A80EE801ABCEEC10A80ED020ADF
:1012F00030BD04E001EE901ADFED092ABAE70021C3
:10130000016041608160F3E7284402580000003921
:10131000384402580024744A0090D0030024744CCE
:101320000024F44A494930B5484C0B1D0A681C3466
:1013300009681D68246802F00303C5F30022C1F3A5
:101340000551C4F3CC04002914FB02F200EE102A6C
:10135000F8EE400A75D03F4A9FED3D1AB7EE000AFD
:101360006BB1DFED3D1A012B01D0022B64D002EEF0
:10137000101A1168F8EE422A81EEA22A21E0334CBD
:10138000283C23689B0612D5344B246801EE901A42
:101390001168C4F3C104F8EE612AE34001EE903A0B
:1013A000C1F30801F8EE611A81EEA22A0BE001EE0A
:1013B000901ADFED2B2A00BFF8EE611A116882EE59
:1013C000A12AC1F3080101EE901A1168F8EE611A22
:1013D00040EE811A71EE800A62EE200AC1F34621C6
:1013E00001EE101AB8EE411A31EE001AC0EE811A61
:1013F000BCEEE11A80ED001A1168C1F3064101EE5E
:10140000101AB8EE411A31EE001AC0EE811ABCEE85
:10141000E11A80ED011A1168C1F3066101EE101A9C
:10142000B8EE411A31EE000A80EE801ABCEEC10A15
:1014300080ED020A30BD04E001EE901ADFED092ACA
:10144000BAE70021016041608160F3E72844025857
:1014500000000039404402580024744A0090D00330
:101460000024744C0024F44A2DE9FC5F044650F833
:10147000241B002500902E460801FE4FDFF8F8835C
:101480001DD5606E50B1B0F5801F0CD0B0F5001FB7
:101490000ED0B0F5401F1DD001250FE0386840F494
:1014A0000030386016E00221201D01F0E7FE03E065
:1014B0000098022101F072FF05000BD02E46208813
:1014C000C00523D5606D05281ED2DFE800F00C11A1
:1014D000161B1B00626ED8F8001021F44011114356
:1014E000C8F80010EBE7386840F40030386009E0D5
:1014F0000021201D01F0C2FE03E00098002101F050
:101500004DFF05466DB100E001252E46208880057F
:1015100028D5A06D80281ED00CDC90B140280ED1BB
:1015200014E0626DD8F8001021F007011143C8F8EB
:101530000010EBE7C02813D0B0F5807F10D0012554
:101540000FE0386840F40030386009E00021201DC9
:1015500001F094FE03E00098002101F01FFF054612
:1015600095B12E462088DFF81093400509F108094F
:101570002CD5D4F8A400B0F5800F20D00DDCA0B19C
:10158000B0F5001F0FD115E0A26DD8F8001021F4BE
:10159000E0711143C8F80010E4E7B0F5C00F13D0B4
:1015A000B0F5000F10D001250FE0386840F400308E
:1015B000386009E00021201D01F060FE03E0009882
:1015C000002101F0EBFE054675B12E46208800058E
:1015D0002DD5D4F8A800B0F1007F21D00EDCA8B141
:1015E000B0F1807F10D116E0D4F8A420D9F8001013
:1015F00021F460011143C9F80010E7E7B0F1407F22
:1016000013D0B0F1806F10D001250FE0386840F49E
:101610000030386009E00021201D01F02FFE03E0BA
:101620000098002101F0BAFE05466DB12E462068F3
:1016300080011FD5A06CD8B110280FD0202812D05F
:10164000302815D0012514E0D4F8A820D9F80010CE
:1016500021F0E0611143C9F80010E8E7386840F470
:101660000030386004E00221201D01F007FE05462D
:101670006DB12E462088C0042BD5E06DB0F5005F1B
:1016800020D00DDCA0B1B0F5805F0FD115E07A4815
:10169000A26C001F016821F0300111430160E9E7ED
:1016A000B0F5405F13D0B0F5804F10D001250FE0AA
:1016B000386840F40030386009E00021201D01F056
:1016C000DDFD03E00098002101F068FE054685B1CC
:1016D0002E462088800429D5206EB0F5403F23D0C7
:1016E00010DC08B3B0F5803F14D0B0F5003F0FD147
:1016F00015E0E26DD8F8001021F4E0411143C8F87C
:101700000010E6E7B0F5802F0ED0B0F5A02F0BD07B
:1017100001250AE00121201D01F0B0FD03E0009841
:10172000012101F03BFE05468DB12E462088400484
:101730002AD5D4F8AC00B0F1405F23D010DC08B358
:10174000B0F1805F14D0B0F1005F0FD115E0226ED0
:10175000D8F8001021F4E0211143C8F80010E5E7A3
:10176000B0F1804F0ED0B0F1A04F0BD001250AE0B0
:101770000121201D01F082FD03E00098012101F00C
:101780000DFE05466DB12E46208800041FD5E06E83
:10179000D8B1B0F1805F0ED0B0F1005F10D001255C
:1017A00014E0D4F8AC20D9F8001021F0E041114346
:1017B000C9F80010E8E7386840F40030386004E009
:1017C0000121201D01F05AFD05466DB12E4620680D
:1017D000C0011ED5606CD0B101280ED0022811D0F6
:1017E000032814D0012513E0E26ED8F8001021F090
:1017F00040511143C8F80010E9E7386840F4003060
:10180000386004E00221201D01F038FD054685B155
:101810002E462068DFF85CB04002ABF11C0B57D5B8
:101820001648016841F480710160FFF70DFB8246A4
:101830000EE01148626C001F016821F003011143A2
:101840000160E6E7FFF700FBA0EB0A0064283DD843
:101850000A480068C005F5D57DBBDFF81CA0B4F8C8
:10186000B0200AF1200ADAF8001002F4407001F406
:10187000407105E02C440258504402580048025878
:10188000814211D0DAF80010DAF8002021F440711A
:1018900042F48032CAF80020DAF8002022F48032C4
:1018A000CAF80020CAF80010D4F8B000B0F5807F64
:1018B00021D1FFF7C9FA019019E008E0FFF7C4FA57
:1018C0000199411A41F28830814210D903252E46F0
:1018D0002078DFF844A4C0073DD0A06F182838D086
:1018E00026DC80B3082829D0102825D12CE0DAF88E
:1018F00000008007E2D5D4F8B010C1F3012003281E
:1019000058460DD0016821F47C510160B4F8B02034
:10191000DAF80010C2F30B021143CAF80010D7E73F
:10192000FE4A036802EA111223F47C511143ECE7EA
:1019300020280ED028280CD001250BE00121201DE5
:1019400001F09CFC04E004E00098012101F026FD78
:1019500005465DB12E46207880071ED5606F0628AB
:1019600019D2DFE800F0160C11161616A26FDAF87D
:10197000001021F038011143CAF80010EBE70121F3
:10198000201D01F07BFC03E00098012101F006FD21
:10199000054675B100E001252E46207840071FD589
:1019A000D4F89000062819D2DFE800F0160C1116C2
:1019B0001616626FDAF8001021F007011143CAF819
:1019C0000010EAE70121201D01F058FC03E0009817
:1019D000012101F0E3FC05469DB100E001252E4602
:1019E000207880062BD5D4F88C00B0F1405F24D04D
:1019F00011DC10B3B0F1805F15D0B0F1005F10D1F1
:101A000016E0D4F89020D9F8001021F00701114316
:101A1000C9F80010E4E7B0F1804F0ED0B0F1A04F4C
:101A20000BD001250AE00021201D01F027FC03E076
:101A30000098022101F0B2FC05468DB12E462078B7
:101A400040062BD5D4F89800B0F5406F24D011DCB7
:101A500010B3B0F5806F15D0B0F5006F10D116E05F
:101A6000D4F88C20DAF8001021F0E0411143CAF8D4
:101A70000010E4E7B0F5805F0ED0B0F5A05F0BD0AA
:101A800001250AE00021201D01F0F8FB03E0009889
:101A9000022101F083FC05468DB12E462078000618
:101AA0002BD5D4F89C00B0F5C04F24D011DC10B376
:101AB000B0F5005F15D0B0F5804F10D116E0D4F826
:101AC0009820D9F8001021F4E0511143C9F8001012
:101AD000E4E7B0F5004F0ED0B0F5204F0BD0012554
:101AE0000AE00021201D01F0C9FB03E0009802215B
:101AF00001F054FC05464DB12E46207800071ED556
:101B0000D4F88000B0F5805F0AD00FE0D4F89C20B4
:101B1000D9F8001021F460411143C9F80010ECE736
:101B20000098022101F03AFC00B10126D4F880208F
:101B3000DAF8001021F440511143CAF8001020785F
:101B4000C00613D5D4F89400B0F5807F05D1009875
:101B5000022101F023FC00B10126D4F89420D9F829
:101B6000001021F440711143C9F8001020680003EF
:101B700016D5D4F8A00038B1B0F5803F09D0B0F543
:101B8000003F0BD001250AE00021201D01F076FB6B
:101B900003E00098022101F001FC054685B12E46C4
:101BA0002068400322D5D4F88400B0F5801F11D0FE
:101BB000B0F5001F13D0B0F5401F15D0012514E07B
:101BC000D4F8A020D9F8001021F440311143C9F80D
:101BD0000010E5E7386840F40030386004E0009811
:101BE000012101F0DBFB054655B12E462068C003FC
:101BF0001CD5E06C70B1B0F5803F10D0012514E029
:101C0000D4F88420DAF8001021F440111143CAF806
:101C10000010EBE7386840F40030386004E002213F
:101C2000201D01F02BFB0546CDB12E46206880001B
:101C300005D50098022101F0B1FB00B10126206812
:101C400080031BD5E06FB8B1B0F5807F10D0B0F540
:101C5000007F11D0B0F5407F0ED001250DE02E4859
:101C6000E26C0838016821F4803111430160DDE73E
:101C7000386840F400303860F5B32E462068C00262
:101C800007D5226FD8F8001021F000411143C8F8A1
:101C900000102068C00008D5D4F8B420DBF800108C
:101CA00021F480411143CBF800102068800207D551
:101CB000A26ED8F8001021F080711143C8F800100E
:101CC000206840000CD5DBF8001021F40041CBF86F
:101CD0000010DBF80010D4F8B8201143CBF8001046
:101CE0002068002807DA0C48226D0838016821F0C6
:101CF00040511143016000E014E02068000208D563
:101D0000D4F88820DAF8001021F440011143CAF811
:101D1000001086B1012003E054440258CFFFFF00B9
:101D2000BDE8FC9FE26FDAF8001021F44071114326
:101D3000CAF80010A2E70020EDE700002DE9F05FEF
:101D400004000F467ED0DFF83882D8F8000000F09B
:101D50000F00B8420CD2D8F8001021F00F0139431F
:101D6000C8F80010D8F8000000F00F00B84269D1A0
:101D70002078844D40070AD52069296801F0700158
:101D8000884204D9296821F0700101432960207834
:101D90007C4E361D00070AD56069316801F070017C
:101DA000884204D9316821F0700101433160207804
:101DB000C0060AD5A069316801F4E061884204D9FF
:101DC000316821F4E061014331602078DFF8B4B17B
:101DD00080060BF1080B0CD5E1695846DBF80020B2
:101DE00002F07002914204D9026822F070020A43A4
:101DF0000260207880070AD5E068296801F00F01A9
:101E0000884204D9296821F00F0101432960207814
:101E1000C0073ED05B49A2682868183920F470607A
:101E2000104328606068022818D0032819D0096878
:101E3000012819D0490700294ADADFF848A1AAF198
:101E4000080A00E044E0DAF8002022F0070202432A
:101E5000CAF80020FEF7F8FF814612E009688903FE
:101E6000E9E709688901E6E7C905E4E7FEF7ECFF61
:101E7000A0EB090141F28830814202D90320BDE87C
:101E8000F09F6168DAF8000000F03800B0EBC10F95
:101E9000ECD1207880070AD5E068296801F00F01AD
:101EA000884204D2296821F00F0101432960D8F843
:101EB0000010404601F00F01B9420BD9016821F032
:101EC0000F0139430160006800F00F00B84201D0F3
:101ED0000120D4E7207840070AD52069296801F05D
:101EE0007001884204D2296821F070010143296001
:101EF000207800070AD56069316801F070018842D6
:101F000004D2316821F07001014331602078C006AD
:101F10000AD5A069316801F4E061884204D23168D1
:101F200021F4E06101433160207880060CD5E1693D
:101F30005846DBF8002002F07002914204D2026899
:101F400022F070020A43026000F06CF80E492A6821
:101F50002B68C2F3032203F00F038A5CC95C02F012
:101F60001F0201F01F01D040084A20FA01F1116060
:101F70000749086007480068BDE8F05FFEF7A0BFAA
:101F80000020005218440258DE43000818000024C4
:101F9000140000240C00002430B500F043F80B4A74
:101FA0000B490C4B15681468C5F3032204F00F04A9
:101FB0008A5C095D02F01F0201F01F01D040064A51
:101FC00020FA01F119601060084630BD184402582B
:101FD000DE430008180000241400002400B5FFF7B9
:101FE000DBFF05490968054AC1F30211515C01F0A4
:101FF0001F01C84000BD00001C440258DE43000819
:1020000000B5FFF7C9FF05490968054AC1F3022178
:10201000515C01F01F01C84000BD00001C44025883
:10202000DE430008454970B545480968434B103BFD
:1020300011F0380208D00111082A03D0102A0BD061
:10204000182A0BD0084670BD19688906FBD5196897
:10205000C1F3C101C84070BD3A4870BD3749374D22
:1020600018310C1D24350A68096826682D6802F0AD
:10207000030406F00102C1F30511C5F3CC0515FBFD
:1020800002F200EE102AB8EE400AE9B32F4ADFED63
:102090002E0AB7EE001A6CB1DFED2D1A012C01D01B
:1020A000022C43D002EE101A1068F8EE422A81EE9C
:1020B000A22A1EE01C68A40611D51B6801EE901A26
:1020C0001168C3F3C103F8EE612AD84001EE900A0B
:1020D000C1F30800F8EE611A81EEA22A0BE001EECE
:1020E000901ADFED1C2A00BFF8EE611A106882EE2C
:1020F000A12AC0F3080001EE900AF8EE611A40EE42
:10210000201A31EE810A00E015E022EE000A106884
:10211000C0F34620401C00EE900AF8EE600A80EE04
:10212000201ABCEEC10A10EE100A70BD01EE901A22
:10213000DFED092AD8E7002070BD000010440258E6
:102140000090D00300127A00000000393044025899
:102150000024744A0024744C0024F44A2DE9F05FF2
:1021600004007CD0FF4F2078FE4D1837DFF8F49341
:10217000103DC00748D0D9F80000396800F0380099
:10218000102815D0182803D101F0030002280FD021
:102190006068B0F5803F12D010B1B0F5A02F18D014
:1021A000286820F480302860286820F4802009E026
:1021B0002868800328D560680028D2D024E02868E9
:1021C00040F480302860606888B1FEF73DFE064626
:1021D00009E0286840F480202860F0E7FEF734FE2C
:1021E000801B64287ED828688003F7D50CE0FEF7B2
:1021F0002BFE064605E000BFFEF726FE801B642886
:10220000F0D828688003F7D4207841F20308D54E2F
:102210000C3E800753D5D9F80000396810F038001B
:102220000ED0182801D188070AD0E068A8B3296821
:1022300021F0190101432960FEF706FE82461BE0EA
:102240002868400702D5E06800288AD0FEF7F6FD2E
:1022500040451BD82069402812D0316800E0CCE00E
:1022600021F47C3141EA0030306028E0FEF7ECFDDB
:10227000A0EB0A000228B5D828684007F6D5E5E7A4
:10228000306820F47C3040F40030EDE7207C316889
:1022900021F0FE4141EA0060E6E7FFE7286820F010
:1022A00001002860FEF7D0FD824605E0FEF7CCFD78
:1022B000A0EB0A00022895D828684007F6D42078B9
:1022C000C0065FD5D9F80000DFF898B2396800F091
:1022D0003800ABF1040B082812D0182805D101F002
:1022E000030000E0EAE001280AD0E069002828683D
:1022F00038D040F080002860FEF7A6FD824623E03B
:102300002868C00523D5E069802876D11FE0206ABF
:10231000202821D0316821F0F84141EA8060306006
:1023200030E000BF94F82010DBF8002022F07C524F
:1023300042EA0161CBF8001024E000BFFEF784FD03
:10234000A0EB0A00022896D82868C005F6D5FEF74B
:1023500075FD4045E6D8DAE7306820F0F84040F0F7
:102360008040DCE720F080002860FEF76DFD064627
:1023700005E000BFFEF768FD801B02289BD8286897
:10238000C005F7D42078000729D576486169643004
:1023900000298046016811D041F001010160FEF77B
:1023A00053FD064605E000BFFEF74EFD801B0228E8
:1023B000C9D8D8F800008007F6D510E021F0010157
:1023C0000160FEF741FD064605E000BFFEF73CFD5B
:1023D000801B022872D8D8F800008007F6D4207835
:1023E000800623D5A0690028286810D040F48050CA
:1023F0002860FEF729FD064605E02CE1FEF724FDE6
:10240000801B02285AD828688004F7D50EE020F4F3
:1024100080502860FEF718FD064604E0FEF714FD24
:10242000801B02284AD828688004F7D42078400707
:102430004FD5DFF83481D8F8001041F48071C8F826
:102440000010FEF701FD064605E000BFFEF7FCFCAC
:10245000801B642832D8D8F80000C005F6D5414E5C
:10246000A068603601280AD008B1052813D030686A
:1024700020F001003060306820F0040002E0306895
:1024800040F001003060A06841F2883A90B1FEF758
:10249000DBFC80460AE0306840F004003060EEE784
:1024A000FEF7D2FCA0EB0801514507D83068800741
:1024B000F6D50EE0FEF7C8FC804607E084E000BFDA
:1024C000FEF7C2FCA0EB080151457DD830688007BB
:1024D000F6D4606AF0B3DFF88C80D9F8001008F108
:1024E0002008C1F3C20103296FD00228286820F018
:1024F0008070286003D0FEF7A7FC044680E0FEF75A
:10250000A3FC064605E000BFFEF79EFC801B0228E8
:1025100073D828688001F7D4E26A40F2F331386852
:1025200054F8283F884340EA021018433860217B62
:102530004FF4FE0C22894FF0FE47208A4902267D87
:10254000521E401EA1F5007189B20CEA0040C2F390
:10255000080200E081E01143761E0143014807EACA
:10256000066203E010440258004802581C30114330
:102570003B4AC8F80010016821F0010101601168B0
:102580004FF6F876236AB14341EAC301116001684E
:10259000A26921F00C01114301600168E26921F098
:1025A000020111430160016841F48031016001685A
:1025B00041F400310160016841F48021016001684B
:1025C00041F00101016001E017E01DE0286840F0E2
:1025D00080702860FEF738FC044604E0FEF734FC07
:1025E000001B022809D828688001F7D535E000BF14
:1025F000FEF72AFC001B022802D90320BDE8F09F49
:1026000028688001F4D428E039680128D8F800004F
:1026100021D0A26A01F0030393421CD1E26AC1F304
:1026200005118A4217D1216BC0F30802491E8A4264
:1026300011D1616BC0F34622491E91420BD1A16BAF
:10264000C0F30642491E914205D1E16BC0F306601A
:10265000491E814201D00120D0E70020CEE70000D2
:102660003444025803490A6822F4600202430A60B3
:102670007047000004040058401EB0F1807F10B580
:1026800001D3012010BD4FF0E02460610F216017DD
:1026900001F058FE0020A0610721216110BD7047A4
:1026A00070477047F0B590F83C20012A38D01D4E95
:1026B000012480F83C40022280F83D2002681A4D37
:1026C0005368B242D2F808C001D0AA4203D14F6881
:1026D00023F470033B430F6823F070031F435760DC
:1026E0000268B24210D0B2F1804F0DD00F4B9A4227
:1026F0000AD00F4B9A4207D00E4B9A4204D0AA42FE
:1027000002D00D4B9A4204D189682CF08003194302
:102710009160002180F83D4080F83C100846F0BDF3
:102720000220F0BD00000140000401400004004010
:1027300000080040000C00400018004010B50400E4
:1027400003D094F83D0010B107E0012010BD002037
:1027500084F83C00204600F023F8022084F83D0075
:102760002068211D00F078FF012084F8480084F8DB
:102770003E0084F83F0084F8400084F8410084F86B
:10278000420084F8430084F8440084F8450084F84B
:10279000460084F8470084F83D00002010BD00008A
:1027A00008B50068B0F1804F12D10A48016841F0C5
:1027B0000101016000680022114600F00100009054
:1027C0001C20FEF7B9FBBDE808401C20FEF7A6BBA5
:1027D00008BD0000E844025870B5044690F83C007B
:1027E000012814D0394B012584F83C50022084F88C
:1027F0003D0022689068184020F47F40906008688F
:10280000702828D010DC10F00F0F03D04BE04FF0F1
:10281000020070BD4FEA2012072A44D2DFE802F01E
:102820005151515149323A00B0F1101F49D009DCE1
:10283000B0F5805F37D0B0F5005F17D0B0F5801FDE
:1028400031D13EE0A0F5801120393AD0102938D09E
:10285000202928D135E04A682068D1E9021300F028
:102860006AFF2068816841F0770109E04A682068C2
:10287000D1E9021300F05FFF2068816841F48041D4
:10288000816010E0CA684968206801F0EFF82068AC
:10289000502106E0CA684968206801F0F8F820680D
:1028A000602100F051FF002084F83D5084F83C0086
:1028B00070BDCA684968206801F0D8F820684021D6
:1028C000EFE7226801461046EBE7000088FFCEFFE5
:1028D000704770B50446006800250169C94389073F
:1028E00015D4C168C943890711D4EA1E02610121C8
:1028F0002177206880698007204602D0FFF7E8FF33
:1029000004E000F0CFF8204600F08EF9257720682B
:102910000169C943490717D4C168C943490713D49A
:1029200002216FF00402026121772068806910F4AF
:10293000407F204602D0FFF7CBFF04E000F0B2F862
:10294000204600F071F9257720680169C94309071D
:1029500016D4C168C943090712D404216FF00802D4
:10296000026121772068C0698007204602D0FFF706
:10297000AFFF04E000F096F8204600F055F9257707
:1029800020680169C943C90617D4C168C943C9068B
:1029900013D408216FF01002026121772068C0690A
:1029A00010F4407F204602D0FFF792FF04E000F0D1
:1029B00079F8204600F038F9257720680169C94385
:1029C000C90708D1C168C943C90704D1891E01617B
:1029D000204600F0B1F920680169C943090609D40D
:1029E000C168C943090605D46FF080010161204622
:1029F000FFF756FE20680169C943C90509D4C168BB
:102A0000C943090605D46FF4807101612046FFF7C0
:102A100046FE20680169C943490609D4C168C94313
:102A2000490605D46FF040010161204600F085F9A8
:102A300020680169C94389060BD4C168C943890666
:102A400007D46FF0200101612046BDE87040FFF718
:102A500028BE70BD10B586B0044614216846FDF747
:102A600034FD2068B0F1804F15D10C48016841F069
:102A70000201016000680123082100F002000590B6
:102A80000020009102226946CDE90120CDE903032F
:102A90000348FEF7B5F806B010BD0000E044025848
:102AA00000040258704770B5044690F83C000D468B
:102AB00001280BD0012084F83C000C2A45D007DC0B
:102AC0005AB1042A1BD0082A78D12CE0022070BD0C
:102AD000102A4ED0142A71D15DE0206800F03EFE2D
:102AE0002068816941F0080181612068816921F0D5
:102AF0000401816120682A698169114311E020681D
:102B000000F080FE2068816941F4006181612068E5
:102B1000816921F48061816120682969826942EAC2
:102B2000012181614AE0206800F0B8FE2068C16997
:102B300041F00801C1612068C16921F00401C1614F
:102B400020682A69C169114311E0206800F0ECFE99
:102B50002068C16941F40061C1612068C16921F444
:102B60008061C16120682969C26942EA0121C161AD
:102B700024E0206800F00EFF2068416D41F008015C
:102B800041652068416D21F00401416520682A6992
:102B9000416D114311E0206800F032FF2068416D63
:102BA00041F4006141652068416D21F48061416517
:102BB00020682969426D42EA01214165002084F8BC
:102BC0003C0070BD10B5040003D094F83D0010B176
:102BD00007E0012010BD002084F83C00204600F0F2
:102BE00022F8022084F83D002068211D00F034FD09
:102BF000012084F8480084F83E0084F83F0084F8FF
:102C0000400084F8410084F8420084F8430084F8CE
:102C1000440084F8450084F8460084F8470084F8AE
:102C20003D00002010BD70477047000010B50446FD
:102C30004FF0020269B1042912D0082917D00C29DB
:102C40001CD0102921D094F84300012824D0012061
:102C500010BD94F83E000128F9D184F83E201DE013
:102C600094F83F000128F2D184F83F2016E094F850
:102C700040000128EBD184F840200FE094F8410097
:102C80000128E4D184F8412008E094F842000128AA
:102C9000DDD184F8422001E084F84320012220683D
:102CA00000F03CFD1A4920681A4A88420AD0904236
:102CB00008D0194B984205D0184B984202D0184BB7
:102CC000984203D1436C43F4004343642068884234
:102CD00010D0B0F1804F0DD0124988420AD012496D
:102CE000884207D01149884204D0904202D010494E
:102CF000884207D181680F4A1140062906D0B1F5F4
:102D0000803F03D0016841F001010160002010BD47
:102D10000000014000040140004001400044014027
:102D2000004801400004004000080040000C004042
:102D300000180040070001007047704730B590F858
:102D40008010012918D0012280F880202421C0F8A9
:102D500084100022202450F8641B0B680D6823F0B7
:102D6000005325F001050D60026050F8641C0B60F3
:102D700004620277104630BD022030BD70B50446B3
:102D800090F8800001281DD0012284F880202420A2
:102D9000C4F8840020680568026822F0010202601D
:102DA0002068826822F060620A438260204600F058
:102DB00081FE2268202100201560C4F8841084F868
:102DC000800070BD022070BD70B5044690F8800090
:102DD00001281DD0012284F880202420C4F884001A
:102DE00020680568026822F001020260206882689B
:102DF00022F060420A438260204600F05BFE2268B7
:102E0000202100201560C4F8841084F8800070BD73
:102E1000022070BD10B5040003D0D4F8840010B1B6
:102E200007E0012010BD002084F88000204600F05B
:102E300027F82420C4F884002068016821F00101EB
:102E40000160204600F0ECFE0128EBD0A06A10B132
:102E5000204600F051FE2068416821F49041416015
:102E60002068816821F02A0181602068016841F0B2
:102E7000010101602046BDE8104000F0A1BE000045
:102E800030B5B5B0044614212FA8FDF71EFBBC21B8
:102E90006846FDF71AFB17492068884228D10225A9
:102EA0006846002400951D94FEF7DEFA08B1FDF790
:102EB0000DFD1148016841F480210160006800F4B3
:102EC000802034900C480838016841F00801016006
:102ED00000680721CDE9305400F008003490CDE9B6
:102EE00032414FF440702F9004482FA9FDF788FE1F
:102EF00035B030BD00480040E8440258000C02588C
:102F0000FEE7000016498023164870B5134A0024D6
:102F10000A60E12504700126437040F2F452857086
:102F2000C4700471447148600F480E72C8600F4845
:102F3000C1E904020846FDF7DDFC08B172B6FEE700
:102F4000074834213438FDF7C0FA054821224FF4F0
:102F5000403134380260C0E9044170BD0080024055
:102F60005000002400000024600004300000043001
:102F70002DE9F04F87B014216846FDF7A6FA6548A1
:102F8000016841F010010160016801F01001059134
:102F9000016841F004010160016801F0040105913C
:102FA000016841F020010160016801F020010591F4
:102FB000016841F080010160016801F08001059124
:102FC000016841F001010160016801F00101059112
:102FD000016841F002010160016801F00201059100
:102FE000016841F040010160016801F04001059174
:102FF000016841F008010160006844F20107DFF850
:103000001891002200F00800394605904846FDF767
:103010000FFFDFF808A14FF48068002241465046B8
:10302000FDF706FFDFF8F8B0002202215846FDF751
:10303000FFFE03254FF6FD70002469460294CDE99A
:1030400000055846FDF7DCFD364E7810CDE900044A
:10305000694630460294FDF7D3FD4FF6FF7069468E
:10306000CDE9000530480294FDF7CAFD41F6CD7068
:103070006946CDE9000530460294FDF7C1FD48F2EE
:1030800079406946CDE9000528480294FDF7B8FD6E
:1030900001260097CDE90164694648460394FDF78F
:1030A000AFFD49F6F6706946CDE900054846029441
:1030B000FDF7A6FD1E4F4DF27F70CDE90005694674
:1030C00038460294FDF79CFDCDF800806946CDE9B5
:1030D000016450460394FDF793FD4FF6FF006946E7
:1030E000CDE9000550460294FDF78AFD1149802084
:1030F0008DE8130069463846FDF782FD02200090F6
:10310000CDE90164694658460394FDF779FD07B09F
:10311000BDE8F08FE044025800040258000C025849
:10312000001002580008025800140258000002580B
:10313000001802580000111110B58EB000241C2197
:10314000009407A8019402940394049405940694AF
:10315000FDF7BBF91E4840F2E73140F27F224FF005
:103160008043C0E9024104618461C0E90032FFF795
:10317000E5FA08B172B6FEE74FF4805000901448AB
:103180006946FFF729FB08B172B6FEE71048FFF762
:1031900019FD08B172B6FEE70D4804A9049406941F
:1031A000FFF780FA08B172B6FEE76020CDE90704A8
:1031B0000748042207A909940B94FFF774FC08B18F
:1031C00072B6FEE70248FFF745FC0EB010BD0000E6
:1031D000D80000241748002110B5154C0C224FF4DC
:1031E000E1330460C0E90131C160C0E904128161CA
:1031F000C161016241628162FFF70CFE08B172B6E3
:10320000FEE70C480021FFF7DFFD08B172B6FEE7CC
:1032100008480021FFF7B2FD08B172B6FEE7054885
:10322000FFF78CFD002801D072B6FEE710BD00004C
:1032300000480040240100240D48002170B50223FD
:103240000A4D0122C0E9033183610924C0E9072145
:10325000C0E90912C0E90B21C0E90054FDF7B2FE34
:10326000002801D072B6FEE770BD000000000840E3
:10327000B4010024FEE7FEE7704700002DE9F047A7
:10328000454D044689464FF0000A2868C043800730
:103290000AD0414E283E306820F080603060FDF753
:1032A000D3FD0746B04608E00120BDE8F08700BF27
:1032B000FDF7CAFDC01B022867D8D8F8000000013E
:1032C000F6D4206829684FF4FE0721F47C313E02D1
:1032D00041EA00302860207AA389B4F804C0400293
:1032E0002D4D2D495B1E227CACF1010C1035091DC2
:1032F000A0F5007080B2521ECCF3080C07EA03431D
:1033000040EA0C00184306EA02621043286008688D
:10331000626920F0C000104308600A68A06922F0CA
:10332000200202430A60281D0A6822F010020A6087
:1033300002684FF6F873E4699A4342EAC4020260F5
:103340000868B9F1000F40F010020A6011D0086857
:10335000B9F1010F11D040F400100860D8F8000056
:10336000444640F08060C8F80000FDF76DFD05465A
:103370000DE0086840F40020EFE740F48010ECE72F
:10338000FDF762FD401B022801D903208DE720686C
:103390000001F5D5504688E7284402582DE9F0474A
:1033A000454D044689464FF0000A2868C04380070F
:1033B0000AD0414E283E306820F080503060FDF742
:1033C00043FD0746B04608E00120BDE8F08700BF96
:1033D000FDF73AFDC01B022867D8D8F8000080002E
:1033E000F6D4208829684FF4FE0721F07C713E0254
:1033F00041EA00502860207AA389B4F804C0400252
:103400002D4D2D495B1E227CACF1010C1835091D98
:10341000A0F5007080B2521ECCF3080C07EA0343FB
:1034200040EA0C00184306EA02621043286008686C
:10343000626920F44060104308600A68A06922F4C1
:10344000007202430A60281D0A6822F480720A6032
:1034500002684FF6F873E4699A4342EAC4020260D4
:103460000868B9F1000F40F480720A6011D0086852
:10347000B9F1010F11D040F080700860D8F8000059
:10348000444640F08050C8F80000FDF7DDFC0546DA
:103490000DE0086840F48000EFE740F40000ECE73E
:1034A000FDF7D2FC401B022801D903208DE72068DC
:1034B0008000F5D5504688E7284402587047FDF74C
:1034C000C9BC0000F0B59DB04C216846FCF7FDFF7B
:1034D000202113A8FCF7F9FF0220FDF73DFE20494B
:1034E0000A68204822F001020A600968016821F494
:1034F000404141F4004101600168002401F4404171
:103500001B9101688904FCD5022009900121C203A6
:1035100018230626CDE900120AAA03250C2782E803
:103520004B00CDE90E50CDE9107468461294FEF7B9
:1035300015FE08B172B6FEE7CDE914543F20139092
:103540000021169413A81794189419941A94FEF74E
:10355000F5FB002801D072B6FEE71DB0F0BD0000FB
:103560002C040058184802582E48F0B52E4A01681D
:1035700041F470010160106800F00F00072804D2C8
:10358000106820F00F00C01D106028490020274C53
:1035900010340B68264D43F001030B6020600B686C
:1035A0002B400B60136803F00F03072B04D913683B
:1035B00023F00F03DB1D13601C4C1E4A18341E4BF6
:1035C000261D371D2060194C1C4D28343060261DE7
:1035D0003860371D23603B1D35601C1D3A60251D7A
:1035E0002E1D1860331D22602860326018600A6842
:1035F0000E4B134C22F4802260330A60186020685E
:103600006FF30F00B0F1005F03D20E490120C1F843
:10361000080143F2D2000C49024B4A03803B086088
:103620001A60F0BD88ED00E000200052004402580E
:103630007FEDF6EA80020101000202020000FF01B4
:103640000010005C00800051004000520148FFF76C
:1036500040B90000D80000242DE9F047274B4FF077
:10366000804A274D02689842264E274F274C09D0A2
:10367000504507D0A84205D0B04203D0B84201D08F
:10368000A04205D1D1F804C022F070024CEA020237
:10369000DFF87CC0DFF87C809842DFF87C900FD0A8
:1036A00050450DD0A8420BD0B04209D0B84207D047
:1036B000A04205D0604503D0404501D0484503D124
:1036C000CD6822F440722A434D6922F080022A43D9
:1036D000026098428A68C2620A68826207D0A04289
:1036E00005D0604503D0404501D0484501D1096966
:1036F000016301214161BDE8F08700000000014045
:103700000004004000080040000C0040000401409C
:1037100000400140004401400048014010B5046AE7
:10372000012301F01F018B409C4304628A40016A1F
:103730001143016210BD42EA032283680A4323F465
:103740007F410A4382607047034B82681A400A43F4
:1037500042F00701816070478FFFCFFF2DE9F04FE6
:10376000026ADFF88880DFF8889022F00102DFF833
:1037700084A0DFF884B0214F0262DFF884C0066ABB
:103780004268836926F002060D68B8428C6803EA35
:103790000C0323F0030344EA060445EA030507D0BB
:1037A000404505D0484503D0504501D0584505D186
:1037B000CB6824F00804234323F00404B84207D064
:1037C000404505D0484503D0504501D0584505D166
:1037D00022F44076D1E9053233431A4342608561D1
:1037E000496841630462BDE8F08F000000040140B5
:1037F00000400140004401400048014000000140F9
:103800008FFFFEFFF0B5026A1E4E1F4C22F0100221
:10381000DFF878E00262056A4368826925F02005D6
:10382000D1F808C0A0420F6802EA060222F44072F2
:1038300045EA0C1542EA072201D0704506D1CE6850
:1038400025F0800545EA061525F04005A0420AD07E
:10385000704508D00E4CA04205D00E4CA04202D0BC
:103860000D4CA04207D1D1E9054623F4406343EA59
:10387000840343EA86034360826149688163056289
:10388000F0BD0000FF8FFFFE00000140000401407A
:10389000004001400044014000480140F0B5026A88
:1038A0001C4D1D4E22F48072A8420262026A4368D7
:1038B000C76922F40072D1F808C00C6827F07307BA
:1038C00042EA0C2244EA070401D0B04206D1CF6894
:1038D00022F4006242EA072222F48062A8420AD05F
:1038E000B04208D00D4DA84205D00D4DA84202D0DF
:1038F0000C4DA84207D1D1E9055623F4405343EAC1
:10390000051343EA06134360C4614968C163026258
:10391000F0BD0000000001400004014000400140F3
:10392000004401400048014070B5026A144B22F483
:10393000805202629842036A4268C46923F40053C9
:103940008E680D6824F4E64443EA063344EA05240D
:103950000BD00C4DA84208D00B4DA84205D00B4D02
:10396000A84202D00A4DA84204D14D6922F48042F7
:1039700042EA85124260C46149680164036270BD15
:1039800000000140000401400040014000440140AB
:1039900000480140F0B5026A22F480320262134FFF
:1039A000056A4268446D25F400350E89B8420B68FB
:1039B00024F0700445EA064543EA04030BD00C4C9E
:1039C000A04208D00B4CA04205D00B4CA04202D024
:1039D0000A4CA04204D14C6922F4803242EA04220B
:1039E00042604365496881650562F0BD00000140A1
:1039F00000040140004001400044014000480140F3
:103A0000F0B5026A22F480120262134F046A42681F
:103A1000436D24F400140E89B8420D6823F4E0438A
:103A200044EA065443EA05230BD00C4DA84208D0C3
:103A30000B4DA84205D00B4DA84202D00A4DA8421A
:103A400004D14D6922F4003242EA85224260436586
:103A50004968C1650462F0BD0000014000040140F6
:103A600000400140004401400048014010B5036A95
:103A7000046A23F00A0324F00104046284690B43FE
:103A800024F0F00141EA02118161036210BD10B51A
:103A9000036A23F0100303628369046A23F470430A
:103AA00024F0A00443EA0232826144EA0111016277
:103AB00010BD000030B5416EB9B101680D4B03F186
:103AC00008048A688968C2F34262490F5D5C615CE0
:103AD0002D01B5FBF1F1A0F86A10995CA25C090117
:103AE000B1FBF2F1A0F8681030BD0121A0F86A1016
:103AF000F8E70000CE43000890F82810C90706D068
:103B00000168C36A4A6822F400321A434A6090F896
:103B10002810890706D50168036B4A6822F48032B1
:103B20001A434A6090F82810490706D50168436B8C
:103B30004A6822F480221A434A6090F82810090744
:103B400006D50168836B4A6822F400421A434A6032
:103B500090F82810C90606D50168C36B8A6822F45C
:103B600080521A438A6090F82810890606D50168A9
:103B7000036C8A6822F400521A438A6090F8281075
:103B8000490611D50168436C4A6822F480121A4331
:103B90004A60416CB1F5801F06D10168836C4A68A8
:103BA00022F4C0021A434A6090F82810090606D58C
:103BB0000168C26C486820F40020104348607047D8
:103BC000F8B500260446C0F88C60FDF73DF90546BF
:103BD00020686FF07E470068000708D500222B465A
:103BE0004FF400112046009700F0F0F960B920680A
:103BF000006840070AD500222B464FF4800120467A
:103C0000009700F0E3F908B10320F8BD2020C4F8C4
:103C10008400C4F88800E666002084F88060F8BD5F
:103C20002DE9F04304468068D84E87B0D84B216810
:103C3000D4E90427D4F81CC010430A68002547EAD9
:103C40000C073843324002430A602068E26841684A
:103C500021F44051114341602268A1699A4201D088
:103C6000206A01439668DFF82CC3CB4FCB4806EAA5
:103C70000C060E4396602168666ACA6A22F00F023B
:103C80003243CA622268BA420ED1006800F038009E
:103C9000182873D047DCB8B3082879D010286FD122
:103CA00078E028287ED17BE0BD498A4209D10068AE
:103CB00000F00700062875D2DFE800F0546A6C6E49
:103CC0007072B8498A4209D1006800F007000628DE
:103CD00068D2DFE800F0475D5F616365B2498A4200
:103CE00009D1006800F0070006285BD2DFE800F089
:103CF0003A5052545658AD498A420BD1006800F0F0
:103D0000070006284ED200E010E0DFE800F02B416B
:103D100043454749A6498A420AD1006800F0380065
:103D2000182839D0B7DD2028BBD13CE001203AE08B
:103D3000A0498A4209D1006800F00700062831D264
:103D4000DFE800F01026282A2C2E9B498A420BD14E
:103D5000006800F00700062824D2DFE800F003190D
:103D60001B1D1F2100201EE09A421BD18B48001D05
:103D7000006800F00700062814D202E00CE007E01B
:103D800010E0DFE800F0030507090B0D02200AE050
:103D9000042008E0082006E0102004E0202002E0D3
:103DA000402000E080208549DFF814829A42854A4D
:103DB0004FF400434FEA21174FF000064DD1102871
:103DC0001AD006DC022809D004280BD008287CD1A0
:103DD0000DE020283DD0402877D13CE0FDF7EEF9FA
:103DE000014610E06846FDF7FBF901990BE003A8D6
:103DF000FDF798FA049906E01068800604D510686B
:103E0000C0F3C100C140B9B3606A676838F81020D8
:103E100007EB4703B1FBF2F0834256D8B0EB073F04
:103E200053D8002308461946FCF7A6FA024678083C
:103E3000130E120243EA012110183A467141002381
:103E4000FCF79AFA604AA0F5407191423DD821688A
:103E50004CE03946D8E71946D6E7D4F81CC04FF6EF
:103E6000EF799C4552D108281AD006DC60B10128B0
:103E70000DD0042829D10EE039E0102815D02028D3
:103E800040D040287CD13FE0FEF7A8F801E0FEF7E3
:103E9000B7F8014610E06846FDF7A2F901990BE07A
:103EA00003A8FDF73FFA049906E01068800604D5E0
:103EB0001068C0F3C100C140C9B1636A606838F8D6
:103EC0001330B1FBF3F1490000E059E001EB500180
:103ED000B1FBF0F080B2A0F11001494550D84FF687
:103EE000F0732168C0F3420218401043C8600120FB
:103EF000A4F86A00A4F8680028462667666707B039
:103F0000BDE8F0833946D8E71946D6E7082819D026
:103F100005DC58B101280CD0042831D10DE010285F
:103F200015D020282ED040282AD12DE0FEF756F8B3
:103F300001E0FEF765F8014610E06846FDF750F92C
:103F400001990BE003A8FDF7EDF9049906E010686C
:103F5000800605D51068C0F3C100C1400029C6D055
:103F6000636A606838F81330B1FBF3F101EB50017C
:103F7000B1FBF0F080B2A0F1100149457FF667AFC8
:103F80000125B4E73946EBE71946E9E7F369FFCFC6
:103F9000000C0058FFF4FF11001001405444025877
:103FA0000044004000480040004C004000500040E9
:103FB0000014014000780040007C00400090D003D5
:103FC000B643000800440258FFFC0F002DE9F047FB
:103FD0009A4617460E460446089D4FF000094FF0DA
:103FE000200839E0681C37D0FCF72EFFA0EB0A0050
:103FF000A84222D80DB32068016849072CD5C069B2
:10400000C043000528D423684FF400611962216879
:104010000B6823F4D0730B6021688B6823F00103D5
:104020008B60C4F88480C4F88880C4F88C8000BF9A
:10403000032084F88090BDE8F08721680B6823F4A2
:10404000D0730B6021688B6823F001038B60C4F888
:104050008480C4F88880EBE72068C06936EA0000F5
:1040600004D00020B842BDD00020E4E70120F9E7E9
:1040700070B5044606990A9E049D01290D981DD02D
:10408000E06840F04000E060204600F035F8A16BA9
:104090005EB321F48031A163012D0ED1E16D144A8C
:1040A00089B2E165E16D1143E165A16841F0060166
:1040B000A160A16841F02001A16070BDA26B012840
:1040C0000C4922F48030A063E06800EA0100E0605F
:1040D000E06820F44010E06003D1E06840F4801014
:1040E000E060204600F008F8D6E741F48031D2E7DE
:1040F0000000EE03BFFFBDFF0C49012202E0521C8D
:104100008A420BD80369002BF9DA0369012243F0D4
:104110000103036104E0521C8A4201D90320704765
:104120000369DB07F7D1002070470000400D030052
:10413000D0F8001E21F00301C0F8001ED0F80418CA
:1041400041F00201C0F80418002070472DE9F04F3B
:104150000E4604460021DDF824B00D46109F0846A7
:10416000DDF82C2004EB800CCCF80411401C0F2847
:10417000F8D32046AFB1806B40F4001CC4F838C0BF
:1041800088460846C4F8000ED4F80008012A2146E3
:10419000C4F800081BD00846D1F8001841F003010C
:1041A0001BE0D0F8040840F0020CC4F804C8A06B6F
:1041B00020F4001CC4F838C0206840F0400CC4F85B
:1041C00000C0206840F0800CC4F800C0D8E7084662
:1041D000D1F800180BB141F00101C0F8001810210E
:1041E00000F086F800B10125204600F071F800B11A
:1041F000012540464FF000694FF67F334FF0904A5B
:10420000C4F81088C4F81488C4F81C88002114E08D
:1042100004EB4112D2F800C9BCF1000F06DA11B16B
:10422000C2F800A904E0C4F8009901E0C2F800094E
:10423000C2F81009C2F80839491C8E42E8D800219A
:1042400015E000BF04EB4112D2F800CBBCF1000F27
:1042500006DA11B1C2F800AB04E0C4F8009B01E03B
:10426000C2F8000BC2F8100BC2F8083B491C8E4282
:10427000E8D8D4F81038BBF1000F6FF0804223F477
:104280008073C4F81038A061626103D1A06940F066
:104290001000A061A069094A0C9940EA0200A061DF
:1042A00019B1A06940F00800A061012F03D1A069F5
:1042B00003490843A0612846BDE8F08F00383C80E0
:1042C00004000040816821F00101816000207047F6
:1042D000064A102101610021491C914201D90320A5
:1042E00070470369DB06F7D400207047400D0300D8
:1042F0002023074A43EA811303610021491C9142AC
:1043000001D90320704703699B06F7D4002070474A
:10431000400D030010B5C268012922F0C042C260FE
:1043200002D029B1012010BDC16841F0005102E066
:10433000C16841F08041C1603220FCF7C9FA002019
:1043400010BDFEE7090700284FEA116104DB00F108
:10435000E02080F80014704700F00F0000F1E0202A
:1043600080F8141D70470000FCF77CFDFFF7AAF8E9
:10437000FEF7FEFDFEF7C6FDFEF7DEFEFEF72AFFA6
:10438000FEF75AFF08480421FEF750FC14252C07BD
:1043900008E03220FCF79CFAA06B401CA063A06BE5
:1043A0007D28F6D9A563F4E7D80000244FF04070CB
:1043B000E1EE100A70470100020004000600080048
:1043C0000A000C00100020004000800000010101E4
:1043D00001030701000008040204080101010000B4
:1043E000000001020304010203040607080900009B
:1043F00010440008000000241C000000D402000843
:104400002C4400081C000024040C0000F0020008EA
:10441000000000000000000001000000100000008B
:0C442000000000000090D0030090D003CA
:040000050800029954
:00000001FF
